:020000040800F2
:1000000000040020610100084109000841090008BE
:100010004109000841090008410900084109000898
:10002000410900084109000841090008D1050008FC
:100030004109000841090008410900084109000878
:100040004109000841090008410900084109000868
:100050004109000841090008410900084109000858
:100060004109000841090008410900084109000848
:100070004109000841090008410900084109000838
:100080004109000841090008410900084109000828
:100090004109000841090008410900084109000818
:1000A0004109000801050008410900082105000870
:1000B00031050008E1040008410900084109000871
:1000C00041090008410900084109000841090008E8
:1000D000410900084109000891070008410900088A
:1000E00041090008410900084109000841090008C8
:1000F00041090008410900084109000841090008B8
:1001000041090008410900084109000841090008A7
:100110004109000841090008410900084109000897
:100120004109000841090008410900084109000887
:100130004109000841090008410900084109000877
:100140004109000841090008410900084109000867
:100150004109000841090008410900084109000857
:1001600072B6234880F30988022080F31488BFF315
:100170006F8F01F0C5FA01F003FA4FF055301D49B9
:100180001D4A91423CBF41F8040BFAE71B49184A4B
:1001900091423CBF41F8040BFAE71949194A1A4B3E
:1001A0009A423EBF51F8040B42F8040BF8E70020D6
:1001B0001649174A91423CBF41F8040BFAE701F097
:1001C0005FFA01F095FA134C134DAC4203DA54F880
:1001D000041B8847F9E700F093FF104C104DAC4228
:1001E00003DA54F8041B8847F9E701F079BA0000F4
:1001F000000800200000002000040020000400206F
:10020000901800080008002034080020380800205A
:10021000C80E0020600100086001000860010008AD
:100220006001000800000000000000000000000065
:100230002DE9F04FC1F80CD0C3689D46BDE8F08FA2
:10024000002383F311882846A047002001F0D0F94D
:1002500001F0F6F900DFFEE70000000000000000FA
:10026000014B5B6883607047001000E000000000F5
:10027000FEE700BF000000000000000000000000DA
:1002800010B4202383F31188094C0A4B22681968A3
:10029000C31D23F00703891A8B429DBF9B1823605F
:1002A00010460020002383F3118810BC704700BF64
:1002B0004C0D0020100D0020000000000000000088
:1002C000024AD36843F08003D36070470044004083
:1002D000836970B51C69DA6805461440E2B2D243FE
:1002E000A6071A6103D543681B6903B198476007E5
:1002F00004D56B689B690BB128469847210704D544
:100300006B681B6A0BB128469847E20604D56B68F8
:100310009B6A0BB128469847E30706D56B689B6834
:100320001BB12846BDE87040184770BD00000000B2
:10033000F0B50378012B52D0002283691A605A630A
:100340009A63DA631A645A62416842690D68846884
:10035000B2FBF5F0CA68CD6A02F00F020138013C29
:10036000012A9862DC625D6037D0022A33D142F004
:100370000102486900F00F00012829D0022825D089
:10038000C86900F00F0001281DD0022819D0486A62
:1003900000F00F00012803D0022803D142F40052DC
:1003A00042F48052012600254FF400448520096B59
:1003B0001A6221F0FF015E611D61D9605C64186002
:1003C000F0BD42F4007242F48072E0E742F0200295
:1003D00042F01002D4E70022CBE70022C7E7214B0E
:1003E000984208D0204B984225D046F6680283698F
:1003F0009A61DA61A8E770254FF000764FF000644B
:100400004FF0000E194A1A4B91691A4F41F40061DE
:100410009161D16841F40061D160C2F80CE083F8C9
:100420001953C3F880611E6083F81B53C3F88041E1
:100430001C604761D9E74FF00054002770260B4B32
:100440000B4AD9690B4D41F00201D961196941F09C
:10045000020119611F6182F81D63C2F880411460B6
:100460004561C2E7C80A0020E40A002000100240EB
:1004700000E100E0006CDC02000000000000000071
:10048000202383F31188114B5B6813F4006302D1BE
:1004900083F31188704780B400AFEFF309834FF006
:1004A0008071A3F1200243F8041C82F30988084AF2
:1004B000116892698968926891428CBF054A064A20
:1004C00043F8082CBD4680BC704700BF00ED00E03B
:1004D000980B0020510200085402000800000000A0
:1004E00008B50348FFF7F4FEBDE80840FFF7C8BFB2
:1004F000E40A0020000000000000000000000000EE
:1005000008B50348FFF7E4FEBDE80840FFF7B8BFB1
:10051000C80A0020000000000000000000000000E9
:10052000FFF7EEBF00000000000000000000000028
:100530002DE9F0414FF0804423699B0703D4BDE8C7
:10054000F041FFF79DBF00272025276185F3118823
:100550001E4E606AB6F826E0F36980B2A0EB0E0189
:100560001A8989B2914206F11C081BD3196872449A
:100570004145F284DA68C1F80480F161DF6008BFA8
:10058000E76087F311881869904785F31188606ADE
:10059000B6F826E0F36980B2A0EB0E011A8989B2A1
:1005A0008A42E3D943450AD07244121A92B2022A0F
:1005B0002CBF8218821C4FF0804392B25A630023F2
:1005C00083F31188BDE8F041FFF75ABF980B002074
:1005D00080B400AFEFF30983203383F3098800234D
:1005E00083F31188BD4680BC704700BF0000000047
:1005F0000E4B0F4A5B688168126F5B1A9B1AC268C8
:1006000030B4D0E9044541680132E418C2600268A0
:1006100045F100058B4288BF43609342C0E9044521
:1006200030BC836038BF0360704700BF001000E03B
:10063000980B0020000000000000000000000000F7
:10064000202383F31188037F072B0ED8DFE803F004
:10065000270D0D2308040D08026A93680133936087
:1006600090E80C001A600268536010B400224FF04A
:10067000FF3481680C4B046202771B689A688A42D7
:10068000FBD25A680021036042601060586081F319
:10069000118810BC70470022036A1A60E5E7002346
:1006A00083F31188704700BF980B00200000000002
:1006B000002210B404468168064B02771B689A68D2
:1006C0008A42FBD25A6820462360626014605C60F4
:1006D00010BC7047980B00200000000000000000D4
:1006E000F8B5174F57F8044FBC4220D005460026F6
:1006F00002E02468BC421AD0E3682B43E36015B1E2
:1007000022691342F5D06068A368416B027F0B43F6
:100710000A2A43630CD00B2AEBD1026A32EA0303A4
:10072000E7D10662FFF7C4FF2468BC42E4D1F8BDFC
:10073000026A1342DDD00662FFF7BAFFF4E700BF9A
:10074000000B00200000000000000000000000007E
:1007500070B50C4C0021254655F80C3FA269AB4200
:100760006161626222620BD06FF001061A6818465E
:10077000E26055601E62FFF79BFFE368AB42F5D174
:1007800070BD00BF000B0020000000000000000052
:100790002DE9F043674D83B0D5F89460D6F80C90FE
:1007A0003368DA059CB27DD4202383F3118814F0DA
:1007B0002F0F46D04FF000085F4F07E0A106736887
:1007C0001CD43468A4B214F02F0F3AD02307F5D00C
:1007D00014F0080F0CBF00208020E10748BF40F054
:1007E0002000A20748BF40F04000630748BF40F424
:1007F0008070FFF775FFA1067368E2D56A69002A69
:1008000040D02A6A696A8A4245D06969501C013120
:100810002862696113702A6AEB699A4201D3AB6955
:100820002B62EB68BB42CCD01A681846EA6057606E
:10083000C3F82080FFF73CFF3468A4B214F02F0FF8
:10084000C4D1002383F3118819F0800F01D0220650
:1008500036D4630611D5202383F311886A6CAB6C00
:100860009A4252D04FF6BF736FF0400209EA030379
:10087000F3600023326083F3118803B0BDE8F043D6
:10088000FFF7FEBD04200193FFF72AFF2A6A696A79
:10089000019B8A42B9D169690029B6D08020FFF74F
:1008A0001FFF8EE7202383F311884FF40070FFF7BA
:1008B00017FF6FF480720023326083F3118873E7AF
:1008C000202383F31188AB6C6A6C9A4224D0AA6B04
:1008D000286C591C0132AA63A96481421F7801D394
:1008E000EB6BAB642B6B154A934209D04FF0000EB3
:1008F0001968184629634A60C3F820E0FFF7D8FE5C
:100900007760002383F31188A3E7AB6B002BA9D09A
:100910001020FFF7E5FEA5E7AA6B002AD7D0082034
:10092000FFF7DEFE4FF63F7309EA030343F040038F
:10093000F360E6E7000B00200C0B0020300B0020DA
:10094000FEE700BF00000000000000000000000003
:10095000F8B51D460446202383F3118800200127A3
:100960004FF0020E24396618E660204B6550204D8A
:100970003362706025616B69A7776361A2606077FD
:1009800084F81CE0E263A0636063A0611C61AE694F
:100990002062B16804F1280304F124078A426C61E3
:1009A0006762A362E3620ED820772D68A9688A4245
:1009B000FBD96A682560626014606C60002383F371
:1009C00011882046F8BD2B4630771B689A68914203
:1009D000FBD901275A6831463360726020461660A1
:1009E0005E602777AC61FFF723FCE7E74102000870
:1009F000980B002000000000000000000000000034
:100A000030B40125064B99691A68087714681046B6
:100A1000636015771C6030BC9A61FFF709BC00BFAA
:100A2000980B002000000000000000000000000003
:100A30004FF6FF73F0B5994287B055D04C4C4FF04C
:100A4000804E2546074655F81C0FDEF82420A6697F
:100A50000229484B38BF0221A8420596049396B25A
:100A60006ED0B4F826C092B2A6EB0C068B19A2EB9E
:100A70000C029BB29342028931DB93423BD39342F7
:100A800005D900689B1A02899BB29A42F9D34FF6A6
:100A9000FF71426801AE0292019016604660ADF8A7
:100AA0000C300289D31A0381A1843846FFF7A8FFCE
:100AB000049B83B1E369B34223D00021029A019BD6
:100AC0001360019BAB425A60049104D01A89BDF8AF
:100AD0000C100A441A81A369186A07B0F0BD0068B7
:100AE0009B1A9BB20289CAE7FFF78AFF204CA369D1
:100AF000186A07B0F0BD0CEB030189B2CEF83410D0
:100B0000BDE70023019EAE42E661756004932AD0E2
:100B10004FF08040426AE18C3389BDF80C5092B2AC
:100B2000511A2B449BB289B28B423381D3D95B1AC1
:100B30009BB2022B2CBFD318931C9BB24363CAE712
:100B4000002002228B19E6849BB201AE019502952A
:100B5000ADF80C10E6612662CEF83430CEF8100005
:100B6000CEF80C20A1E74FF08042D360B3E700BF7E
:100B7000980B002041060008000000000000000063
:100B800061B10246074B10B49B6904201A60546897
:100B90005C602360536010BCFFF74ABF4FF0FF302A
:100BA000704700BF980B002000000000000000000C
:100BB0002DE9F04F83B004460D4616460193D0F858
:100BC0001C804FF0200989F311880027BA46A368DA
:100BD00005F1010B03B36169A368481C013B606127
:100BE000A3602B780B7023696169994224BFE36885
:100BF0006361B8F1000F01D02046C0478AF3118825
:100C0000013E07F1010711D089F311885D46A36801
:100C100005F1010B002BDED1019920460093FFF76F
:100C2000AFFF009B0028D2D083F31188384603B071
:100C3000BDE8F08F00000000000000000000000090
:100C40003030FFF7B5BF00BF00000000000000001B
:100C500030304FF6FF73FFF7ABBF00BF000000005E
:100C6000F8B504460F461646202383F3118805E0A5
:100C700031462046FFF784FF002817DBA568002DCA
:100C8000F6D06269A368511C013B6161A3601770D3
:100C9000236962699A4224BFE3686361E3690BB127
:100CA00020469847002080F31188F8BD85F311880D
:100CB000F8BD00BF000000000000000000000000C0
:100CC0003030FFF7CDBF00BF000000000000000083
:100CD00030304FF6FF72FFF7C3BF00BF00000000C7
:100CE0002DE9F04F044683B0894693461D46D0F85F
:100CF0001C80202787F311880026B2460197B8F19F
:100D0000000F07D02046C04704E029462046FFF7E1
:100D100037FFD0B9A768002FF7D0A269A368511C8C
:100D2000013BA161A360137809F8013B2369A26923
:100D30009A4224BFE368A3618AF311880136B34560
:100D400005D0019B83F31188D9E787F311883046DA
:100D500003B0BDE8F08F00BF0000000000000000FD
:100D60000C30FFF7BDBF00BF000000000000000016
:100D70000C304FF6FF73FFF7B3BF00BF0000000059
:100D800070B520230E46044683F31188C3693BB136
:100D9000984705E031462046FFF7F2FE002813DBB6
:100DA000A568002DF6D0A169A36825694A1C013BFE
:100DB000AA42A36028BFE368A261087828BFA361A4
:100DC000002383F3118870BD85F3118870BD00BFC7
:100DD0000C30FFF7D5BF00BF00000000000000008E
:100DE0000C304FF6FF71FFF7CBBF00BF00000000D3
:100DF00008B50146202383F311880820FFF718FE69
:100E0000002383F3118808BD0000000000000000EB
:100E10002DE9F047DFF88C80D8F818305B7F13F0AD
:100E2000040637D11C4C1D4D1D4F00234FF0200EE2
:100E30000120267055F833C005EBC303D988DCF8D0
:100E4000082093F8049002FB01F2A7FB0232520B38
:100E50008EF31188DCF80C10DCF8183000FA09FA6F
:100E600009F10C0941EA0A0103EB8909CCF80C10DD
:100E7000C9F8042086F3118823780133DBB2042BF0
:100E80002370D7D90120FFF7B3FFD8F818305B7F64
:100E90005B07CAD5BDE8F087170D0020180D0020AC
:100EA0005917B7D1980B0020000000000000000087
:100EB0004FF400552E4608B5064B074A9B69074C70
:100EC0009A6166613220FFF793FF25613220FFF7B8
:100ED0008FFFF6E7980B0020B017000800100140C4
:100EE0002DE9F04F4FF0200989B000214A4679489A
:100EF00000F00EFC89F31188012740F2E630002152
:100F0000754ADFF8F0A156680DEB0903DAF81850BE
:100F100043F8146D0495059707905360069181F38B
:100F20001188DAF818506B7F59073ED402F10C0390
:100F30006A4C6B4EDFF89CB1019389F311886B6B9F
:100F4000DA0740F1B2806FF0010213406B630023B7
:100F500083F3118889F31188069A0693226083F33C
:100F60001188226833705342134022EA0302402B57
:100F7000226026D02ED8042B3ED0202B33D0022B3B
:100F80001FD012B13378002BEDD089F31188FFF711
:100F9000DFFB002181F311882022584600F0B8FBC6
:100FA000DAF818506B7F5B07C7D509B0BDE8F08F42
:100FB000002D40F08C80002B40F085800023494AB2
:100FC000137089F31188FFF7C3FB002383F31188A3
:100FD0002268D6E7B3F5807FF3D0B3F5007FF0D079
:100FE000802BCED1EDE783F31188FFF7B1FB00230F
:100FF00083F311882268C4E70F20FFF7F9FE256804
:10100000002DDED12B46202259460198FFF768FEBD
:10101000354ADFF8E4C03549C0B210702B462A4685
:10102000BCF9007091F800E001E00132D2B29042C8
:10103000BED91BF802104029F7D10BEB02018978C9
:101040003A29F2D1531C0332DBB2D2B21BF803505F
:101050001BF80280303DB8F1260FEDB22FD0904240
:101060002DD94FF0000E774601E0904212D901329F
:10107000D2B2B8F12D0F07EB8703A8F130011BF8AE
:10108000028001EB430314BF1FB24FF0010EB8F111
:10109000260FEAD1BEF1000F12D07F423FB20123EA
:1010A000134921F815701D46C1E701230A202B6260
:1010B000FFF7A6FC6B6B03F00102D24345E7002764
:1010C0004FF0000EEBE7094B83F800E076E7ACF851
:1010D000007070E75C0D0020000B0020500D002018
:1010E000140D0020160D0020E80C00204A0D0020F1
:1010F000400D0020980B0020580D0020000000003B
:1011000000234FF0FF314FF0805C4FF08834C24E27
:101110002DE9804801224FF004094FF0200B376978
:10112000BE4D31613361F768F160F360F769AE4637
:1011300047EA0C07F761F769DFF82C8347F000678F
:10114000F761D8F800704FF0804047F48077C8F816
:101150000070D6F81880B24F48F07D08C6F81880A5
:10116000DFF808838BB0C7F80C80DFF804834FF0FA
:10117000400AC7F80480DFF8FC82C7F80080C7F88F
:101180000C14DFF8F482C7F80444C7F80044A54FF4
:10119000C8F80C10C8F80470C8F80040A24FDFF877
:1011A000DC82F9607C60C7F80080A04FDFF8D08255
:1011B000C8F80C107B60C8F80440FB60C8F8004019
:1011C000DFF8C0823A706B6187F8109088F80020D1
:1011D000C5F838B0F46988F81090DFF8AC92144381
:1011E0004EF8049B2A72C8F80C30AB62C8F8043081
:1011F000ED622D65F461C5F804E0DFF890E28C4CF7
:10120000C7F818E0AEF5943EC8F818E005F1940E62
:10121000C5F840E0DFF878E2DFF87892C5F84CE0F6
:10122000DFF874E2C5F894E0D4F804E04EF4006E00
:10123000C4F804E005F10C04EC602C6105F15404E1
:10124000AC616C622C6205F17404EC61EC63AC641B
:101250006C6405F130042C636C634BF67F3484625C
:101260004FF6FF74C46283614363C36043604261AD
:10127000026003926FF07F024FF6FF0E89F81C2385
:101280004FF010026B48C9F880C1C9F800C08360F4
:10129000C468DFF808C204EA0E0E674C4EEA040484
:1012A000DFF8FCE1C460DEF80C4044F08074CEF856
:1012B0000C40DCF800E0614C4EF0010ECCF800E090
:1012C000A184C277646080F822B0049104F11C010B
:1012D000002205930693A360E384236724602461BE
:1012E0006461E16107930293002304A8CDE9082318
:1012F0002162FEF7B5FF04A8FFF77AF9DFF8A4E151
:101300004F4850492EF0070320F00700D4F814C0CE
:1013100000900193039A029B069801F1100EC1F808
:1013200010E0C1F814E004F12C0E2067C4F840C0AE
:101330008B6184F849306366236684F84A206364CD
:10134000E463C4F834A0C4F868A0CCF810E0C4F892
:1013500014E0C4F818E0DFF850C104F1500E009812
:10136000C4F850E0DFF844E18B60CB60C1F800C006
:1013700004F154016165A165CEF80000324901987D
:1013800084F84820086083F3118862B62F49A36966
:1013900004F1780099612E4BD821FFF7D9FA2D4B33
:1013A00083618BF311882B7A012B0AD1C022F36958
:1013B00043F40033F36189F82623C9F884A1C9F8FE
:1013C00004A040F6C412D5F8943044F240019A606B
:1013D0004FF0010A42F22C1200264FF00209196167
:1013E000C3F814A0DA601E601A685B6885F808907C
:1013F00086F31188184C194B45224FF4A4712660CE
:10140000666026811648FFF7A3FA202585F3118828
:10141000144C064863684BE000100240000B0020AB
:10142000000801408888388800140140C80A00205C
:10143000002004E000ED00E00003FA05980B002016
:10144000CF0E0020F00C0020100D0020C017000867
:1014500071020008E0170008400D0020E10E0008AE
:10146000380800200008002000700040DFBFFFFFA8
:10147000BBBB8888884B38BB0010014044888888F3
:1014800000180140E40A002070180008002C0140F8
:10149000C102000800E100E000440040001000E04C
:1014A000F0ED00E000500020810200084C0D00200B
:1014B0007C60BB60FEF73CFFFE6087F8009086F31F
:1014C000118885F3118863682348C8F80440C8F878
:1014D0000830FEF72DFFC8F80C6088F8009086F3FE
:1014E0001188314603261D4C2822204600F010F9B1
:1014F0001B4D2760A7602761A7612677194B4A22F9
:101500004FF4A47184F80CA084F81490C4F82080DF
:101510001548FFF71DFA154B40224FF4A4711448EB
:101520002C60052742F20F74FFF712FA114E2A6859
:1015300002F12801D3880832A34203F1C8038CBF0B
:1015400000239BB222F8023C9142F3D11420377061
:10155000FFF74EFCEBE700BFE40A0020180D002067
:10156000540D0020110E000880090020B10E000863
:10157000800D0020150D002000000000000000007C
:10158000174B19461A6842F001021A600B689A0755
:10159000FCD500200B68124A03F0F9030B60486089
:1015A000536813F00C0FFBD153680D4943F420131B
:1015B0005360136843F0807313600B689B01FCD584
:1015C0001122084B084848601A604B68044A43F0EF
:1015D00002034B60536803F00C03082BFAD17047E9
:1015E000001002400020024000646800000000007B
:1015F00038B52022034682F311880E4A9469606A46
:1016000004F124058542236206D003686362FFF774
:101610004FF8606AA842F8D1637F9B0704D1226922
:1016200063691A61226953610F20BDE83840FFF7F2
:10163000E7B900BF980B0020000000000000000088
:1016400070B4012600250C4A106894690368A168EB
:1016500013605A6006779061257700E01B689A68EE
:101660009142FBD35A6821462360626014605C603B
:1016700070BCFEF7DDBD00BF980B0020000000002D
:10168000F0B50026114F124D124C134B134907F1C0
:10169000800E9C4211D91A46043951F8040F42F8C1
:1016A000040B9442F9D8DA43144424F003040434BC
:1016B00023449D4203D943F8046B9D42FBD8103765
:1016C000774502D297E83A00E3E7F0BDF01700084B
:1016D000C80E0020C80E0020C80E0020C418000844
:1016E000FEE700BF00000000000000000000000056
:1016F000704700BF00000000000000000000000074
:10170000704700BF00000000000000000000000063
:1017100070B4860746D0541E002A41D0CAB2034690
:1017200002E014F1FF343BD303F8012B9D07F8D1FD
:10173000032C2ED9CDB245EA05250F2C45EA0545E7
:1017400019D9264603F11002103E0F2E42F8105C04
:1017500042F80C5C42F8085C42F8045C02F11002AA
:10176000F2D8A4F1100222F00F0204F00F0410329C
:10177000032C13440DD91E462246043A032A46F888
:10178000045BFAD8221F22F003020432134404F04F
:1017900003042CB1C9B21C4403F8011B9C42FBD1C9
:1017A00070BC704714460346C2E700BF000000004B
:1017B000626C696E6B657200000000000000000042
:1017C0006D61696E00168018040244080C1014182C
:1017D000001C1D1E000000000000000000000000B2
:1017E00069646C650000000000000000000000005B
:1017F000C4180008C80E0020C80E0020C80E002023
:10180000C4180008000000000000000000000000F4
:10181000C4180008000000000000000000000000E4
:10182000C4180008000000000000000000000000D4
:10183000C4180008000000000000000000000000C4
:10184000C4180008000000000000000000000000B4
:10185000C4180008000000000000000000000000A4
:10186000C418000800000000000000000000000094
:10187000510C0008710D0008D10C0008E10D0008A2
:10188000C10C0008D10D0008410C0008610D0008D2
:10189000404B4C0010270000000000000100000039
:1018A0000000000001000000000000000100000036
:1018B0000000000001000000000000000000000027
:0418C0000000000024
:04000005080001618D
:00000001FF
