:020000040800F2
:100000000004002061010008611E0008611E000854
:10001000611E0008611E0008611E0008611E0008C4
:10002000611E0008611E0008611E000841110008E1
:10003000611E0008611E0008611E0008611E0008A4
:10004000611E0008611E0008611E0008611E000894
:10005000611E0008611E0008611E0008611E000884
:10006000611E0008611E0008611E0008911600084C
:100070005116000811160008D11500089115000846
:100080005115000811150008611E0008611E0008C6
:10009000611E0008611E0008611E0008611E000844
:1000A000611E000841140008611E00086114000868
:1000B0007114000821140008611E0008A11B00082B
:1000C000A11C0008611E0008611E0008611E0008D6
:1000D000611E00086121000841210008212100085B
:1000E000611E0008611E0008611E0008611E0008F4
:1000F000611E0008611E0008611E0008611E0008E4
:10010000611E0008611E0008611E0008611E0008D3
:10011000611E0008611E0008611E0008611E0008C3
:10012000611E0008611E0008611E0008611E0008B3
:10013000611E0008611E0008611E0008611E0008A3
:10014000611E0008611E0008611E0008611E000893
:10015000611E0008611E0008611E0008611E000883
:1001600072B6234880F30988022080F31488BFF315
:100170006F8F01F0BDFE02F083FB4FF055301D493B
:100180001D4A91423CBF41F8040BFAE71B49184A4B
:1001900091423CBF41F8040BFAE71949194A1A4B3E
:1001A0009A423EBF51F8040B42F8040BF8E70020D6
:1001B0001649174A91423CBF41F8040BFAE701F097
:1001C00057FE01F08DFE134C134DAC4203DA54F888
:1001D000041B8847F9E701F0D3FF104C104DAC42E7
:1001E00003DA54F8041B8847F9E701F071BE0000F8
:1001F000000800200000002000040020000400206F
:10020000003E0008000800203408002038080020C4
:10021000C0160020600100086001000860010008AD
:100220006001000800000000000000000000000065
:100230002DE9F04FC1F80CD0C3689D46BDE8F08FA2
:10024000002383F311882846A047002001F0E0FD39
:1002500001F066FA00DFFEE7000000000000000089
:1002600081F0004102E000BF83F0004330B54FEA67
:1002700041044FEA430594EA050F08BF90EA020FD4
:100280001FBF54EA000C55EA020C7FEA645C7FEA67
:10029000655C00F0E2804FEA5454D4EB5555B8BF8A
:1002A0006D420CDD2C4480EA020281EA030382EAFB
:1002B000000083EA010180EA020281EA0303362D8D
:1002C00088BF30BD11F0004F4FEA01314FF4801C60
:1002D0004CEA113102D0404261EB410113F0004F72
:1002E0004FEA03334CEA133302D0524263EB430329
:1002F00094EA050F00F0A780A4F10104D5F1200EC7
:100300000DDB02FA0EFC22FA05F2801841F1000121
:1003100003FA0EF2801843FA05F359410EE0A5F1F5
:1003200020050EF1200E012A03FA0EFC28BF4CF026
:10033000020C43FA05F3C01851EBE37101F00045DC
:1003400007D54FF0000EDCF1000C7EEB00006EEBE9
:100350000101B1F5801F1BD3B1F5001F0CD3490873
:100360005FEA30004FEA3C0C04F101044FEA4452CA
:1003700012F5800F80F09A80BCF1004F08BF5FEA51
:10038000500C50F1000041EB045141EA050130BD31
:100390005FEA4C0C404141EB010111F4801FA4F1D4
:1003A0000104E9D191F0000F04BF01460020B1FA29
:1003B00081F308BF2033A3F10B03B3F120020CDA61
:1003C0000C3208DD02F1140CC2F10C0201FA0CF03F
:1003D00021FA02F10CE002F11402D8BFC2F1200CA4
:1003E00001FA02F120FA0CFCDCBF41EA0C0190405A
:1003F000E41AA2BF01EB0451294330BD6FEA0404A3
:100400001F3C1CDA0C340EDC04F11404C4F120028D
:1004100020FA04F001FA02F340EA030021FA04F39F
:1004200045EA030130BDC4F10C04C4F1200220FAF6
:1004300002F001FA04F340EA0300294630BD21FA34
:1004400004F0294630BD94F0000F83F4801306BFFA
:1004500081F480110134013D4EE77FEA645C18BFEE
:100460007FEA655C29D094EA050F08BF90EA020F85
:1004700005D054EA000C04BF1946104630BD91EA7D
:10048000030F1EBF0021002030BD5FEA545C05D180
:100490004000494128BF41F0004130BD14F58004BF
:1004A0003CBF01F5801130BD01F0004545F0FE4133
:1004B00041F470014FF0000030BD7FEA645C1ABF68
:1004C000194610467FEA655C1CBF0B46024650EA9F
:1004D000013406BF52EA033591EA030F41F40021CB
:1004E00030BD00BF90F0000F04BF0021704730B551
:1004F0004FF4806404F132044FF000054FF0000126
:1005000050E700BF90F0000F04BF0021704730B5E6
:100510004FF4806404F1320410F0004548BF4042BB
:100520004FF000013EE700BF42004FEAE2014FEA10
:1005300031014FEA02701FBF12F07F4393F07F4FEB
:1005400081F06051704792F0000F14BF93F07F4F1D
:10055000704730B54FF4607401F0004521F0004160
:1005600020E700BF50EA010208BF704730B54FF0E6
:1005700000050AE050EA010208BF704730B511F0EB
:10058000004502D5404261EB41014FF4806404F123
:1005900032045FEA915C3FF4DCAE4FF003025FEAA5
:1005A000DC0C18BF03325FEADC0C18BF033202EB2D
:1005B000DC02C2F1200300FA03FC20FA02F001FA87
:1005C00003FE40EA0E0021FA02F11444C1E600BF26
:1005D00070B54FF0FF0C4CF4E06C1CEA11541DBFD9
:1005E0001CEA135594EA0C0F95EA0C0F00F0DEF8A4
:1005F0002C4481EA030621EA4C5123EA4C5350EA89
:10060000013518BF52EA033541F4801143F48013D9
:1006100038D0A0FB02CE4FF00005E1FB02E506F06A
:100620000042E0FB03E54FF00006E1FB03569CF0BF
:10063000000F18BF4EF0010EA4F1FF04B6F5007FC5
:1006400064F5407404D25FEA4E0E6D4146EB060637
:1006500042EAC62141EA55514FEAC52040EA5E50C0
:100660004FEACE2EB4F1FD0C88BFBCF5E06F1ED86A
:10067000BEF1004F08BF5FEA500E50F1000041EBA1
:10068000045170BD06F0004646EA010140EA02004E
:1006900081EA0301B4EB5C04C2BFD4EB0C0541EA70
:1006A000045170BD41F480114FF0000E013C00F385
:1006B000AB8014F1360FDEBF002001F0004170BDA9
:1006C000C4F10004203C35DA0C341BDC04F11404C2
:1006D000C4F1200500FA05F320FA04F001FA05F24E
:1006E00040EA020001F0004221F0004110EBD3701B
:1006F00021FA04F642EB06015EEA430E08BF20EA47
:10070000D37070BDC4F10C04C4F1200500FA04F3E9
:1007100020FA05F001FA04F240EA020001F000417B
:1007200010EBD37041F100015EEA430E08BF20EAEE
:10073000D37070BDC4F1200500FA05F24EEA020E36
:1007400020FA04F301FA05F243EA020321FA04F065
:1007500001F0004121FA04F220EA020000EBD3701C
:100760005EEA430E08BF20EAD37070BD94F0000F1C
:100770000FD101F00046400041EB010111F4801F50
:1007800008BF013CF7D041EA060195F0000F18BF01
:10079000704703F00046520043EB030313F4801F3D
:1007A00008BF013DF7D043EA0603704794EA0C0FF7
:1007B0000CEA135518BF95EA0C0F0CD050EA41060D
:1007C00018BF52EA4306D1D181EA030101F000418A
:1007D0004FF0000070BD50EA410606BF10461946B2
:1007E00052EA430619D094EA0C0F02D150EA0136BE
:1007F00013D195EA0C0F05D152EA03361CBF1046FF
:1008000019460AD181EA030101F0004141F0FE419D
:1008100041F470014FF0000070BD41F0FE4141F421
:10082000780170BD70B54FF0FF0C4CF4E06C1CEA21
:1008300011541DBF1CEA135594EA0C0F95EA0C0FD6
:1008400000F0A7F8A4EB050481EA030E52EA033591
:100850004FEA013100F088804FEA03334FF08055B2
:1008600045EA131343EA12634FEA022245EA1115DF
:1008700045EA10654FEA00260EF000419D4208BF90
:10088000964244F1FD0404F5407402D25B084FEA3D
:100890003202B61A65EB03055B084FEA32024FF4E9
:1008A00080104FF4002CB6EB020E75EB030E22BF46
:1008B000B61A754640EA0C005B084FEA3202B6EB06
:1008C000020E75EB030E22BFB61A754640EA5C00B5
:1008D0005B084FEA3202B6EB020E75EB030E22BF45
:1008E000B61A754640EA9C005B084FEA3202B6EB46
:1008F000020E75EB030E22BFB61A754640EADC0005
:1009000055EA060E18D04FEA051545EA16754FEA66
:1009100006164FEAC30343EA52734FEAC2025FEA84
:100920001C1CC0D111F4801F0BD141EA00014FF013
:1009300000004FF0004CB6E711F4801F04BF0143E4
:100940000020B4F1FD0C88BFBCF5E06F3FF6AFAE00
:10095000B5EB030C04BFB6EB020C5FEA500C50F190
:10096000000041EB045170BD0EF0004E4EEA113113
:1009700014EB5C04C2BFD4EB0C0541EA045170BD1A
:1009800041F480114FF0000E013C90E645EA060E5E
:100990008DE60CEA135594EA0C0F08BF95EA0C0F8C
:1009A0003FF43BAF94EA0C0F0AD150EA01347FF4D4
:1009B00034AF95EA0C0F7FF425AF104619462CE7AB
:1009C00095EA0C0F06D152EA03353FF4FDAE10460E
:1009D000194622E750EA410618BF52EA43067FF45F
:1009E000C5AE50EA41047FF40DAF52EA43057FF4EF
:1009F000EBAE12E700000000000000000000000065
:100A00004FEA4102B2F1E04324BFB3F5001CDCF130
:100A1000FE5C0DD901F0004C4FEAC0024CEA507068
:100A2000B2F1004F40EB830008BF20F00100704797
:100A300011F0804F21D113F13872BCBF01F000409A
:100A4000704741F480114FEA5252C2F11802C2F1CC
:100A5000200C10FA0CF320FA02F018BF40F001004D
:100A60004FEAC1234FEAD32303FA0CFC40EA0C00FF
:100A700023FA02F34FEA4303CCE77FEA625307D13C
:100A800050EA01331EBF4FF0FE4040F44000704773
:100A900001F0004040F0FE4040F40000704700BF0D
:100AA00080F0004002E000BF81F0004142001FBF23
:100AB0005FEA410392EA030F7FEA226C7FEA236C2C
:100AC0006AD04FEA1262D2EB1363C1BFD218414021
:100AD00048404140B8BF5B42192B88BF704710F0B7
:100AE000004F40F4000020F07F4018BF404211F05A
:100AF000004F41F4000121F07F4118BF494292EAC2
:100B0000030F3FD0A2F1010241FA03FC10EB0C00ED
:100B1000C3F1200301FA03F100F0004302D549427A
:100B200060EB4000B0F5000F13D3B0F1807F06D327
:100B300040084FEA310102F10102FE2A51D2B1F11F
:100B4000004F40EBC25008BF20F0010040EA030014
:100B50007047490040EB000010F4000FA2F10102C1
:100B6000EDD1B0FA80FCACF1080CB2EB0C0200FA4B
:100B70000CF0AABF00EBC25052421843BCBFD04099
:100B80001843704792F0000F81F4000106BF80F413
:100B900000000132013BB5E74FEA41037FEA226CD6
:100BA00018BF7FEA236C21D092EA030F04D092F0A1
:100BB000000F08BF0846704790EA010F1CBF0020D5
:100BC000704712F07F4F04D1400028BF40F0004032
:100BD000704712F100723CBF00F50000704700F052
:100BE000004343F0FE4040F4000070477FEA226279
:100BF00016BF08467FEA23630146420206BF5FEA4A
:100C0000412390EA010F40F4800070474FF0000349
:100C100004E000BF10F0004348BF40425FEA000C10
:100C200008BF704743F0964301464FF000001CE0B8
:100C300050EA010208BF70474FF000030AE000BF0E
:100C400050EA010208BF704711F0004302D540424C
:100C500061EB41015FEA010C02BF844601460020BE
:100C600043F0B64308BFA3F18053A3F50003BCFAD9
:100C70008CF2083AA3EBC25310DB01FA02FC634486
:100C800000FA02FCC2F12002BCF1004F20FA02F28D
:100C900043EB020008BF20F00100704702F1200280
:100CA00001FA02FCC2F1200250EA4C0021FA02F2E1
:100CB00043EB020008BF20EADC7070470000000030
:100CC0004FF0FF0C1CEAD0521EBF1CEAD15392EA2F
:100CD0000C0F93EA0C0F6FD01A4480EA010C40020B
:100CE00018BF5FEA41211ED04FF0006343EA501065
:100CF00043EA5111A0FB01310CF00040B1F5000FA7
:100D00003EBF490041EAD3715B0040EA010062F155
:100D10007F02FD2A1DD8B3F1004F40EBC25008BF3F
:100D200020F00100704790F0000F0CF0004C08BF5D
:100D300049024CEA502040EA51207F3AC2BFD2F12A
:100D4000FF0340EAC250704740F400004FF0000338
:100D5000013A5DDC12F1190FDCBF00F00040704772
:100D6000C2F10002410021FA02F1C2F1200200FAB0
:100D700002FC5FEA310040F1000053EA4C0308BF77
:100D800020EADC70704792F0000F00F0004C02BFC8
:100D9000400010F4000F013AF9D040EA0C0093F043
:100DA000000F01F0004C02BF490011F4000F013B9D
:100DB000F9D041EA0C018FE70CEAD15392EA0C0F0B
:100DC00018BF93EA0C0F0AD030F0004C18BF31F076
:100DD000004CD8D180EA010000F00040704790F04C
:100DE000000F17BF90F0004F084691F0000F91F0F0
:100DF000004F14D092EA0C0F01D142020FD193EAB6
:100E00000C0F03D14B0218BF084608D180EA01003D
:100E100000F0004040F0FE4040F40000704740F019
:100E2000FE4040F4400070474FF0FF0C1CEAD052E7
:100E30001EBF1CEAD15392EA0C0F93EA0C0F69D043
:100E4000A2EB030280EA010C49024FEA402037D0AE
:100E50004FF0805343EA111143EA10130CF00040A5
:100E60008B4238BF5B0042F17D024FF4000C8B4295
:100E700024BF5B1A40EA0C00B3EB510F24BFA3EB75
:100E8000510340EA5C00B3EB910F24BFA3EB910345
:100E900040EA9C00B3EBD10F24BFA3EBD10340EA9F
:100EA000DC001B0118BF5FEA1C1CE0D1FD2A3FF6E5
:100EB00050AF8B4240EBC25008BF20F0010070479A
:100EC0000CF0004C4CEA50207F32C2BFD2F1FF033D
:100ED00040EAC250704740F400004FF00003013A6E
:100EE00037E792F0000F00F0004C02BF400010F412
:100EF000000F013AF9D040EA0C0093F0000F01F026
:100F0000004C02BF490011F4000F013BF9D041EA47
:100F10000C0195E70CEAD15392EA0C0F08D142027A
:100F20007FF47DAF93EA0C0F7FF470AF084676E74D
:100F300093EA0C0F04D14B023FF44CAF08466EE726
:100F400030F0004C18BF31F0004CCAD130F00042F4
:100F50007FF45CAF31F000437FF43CAF5FE700BF4C
:100F60004FF0FF3C06E000BF4FF0010C02E000BF75
:100F70004FF0010C4DF804CD4FEA40024FEA410317
:100F80007FEA226C18BF7FEA236C11D001B052EACD
:100F9000530C18BF90EA010F58BFB2EB030088BF93
:100FA000C81738BF6FEAE17018BF40F00100704702
:100FB0007FEA226C02D15FEA402C05D17FEA236CE4
:100FC000E4D15FEA412CE1D05DF8040B704700BF2B
:100FD000844608466146FFE70FB5FFF7C9FF0028C2
:100FE00048BF10F1000F0FBD4DF808EDFFF7F4FFFB
:100FF0000CBF012000205DF808FB00BF4DF808ED94
:10100000FFF7EAFF34BF012000205DF808FB00BFB6
:101010004DF808EDFFF7E0FF94BF012000205DF8D8
:1010200008FB00BF4DF808EDFFF7D2FF94BF012089
:1010300000205DF808FB00BF4DF808EDFFF7C8FF82
:1010400034BF012000205DF808FB00BF0000000055
:101050004FEA4002B2F1FE4F0FD34FF09E03B3EBC5
:1010600012620DD94FEA002343F0004310F0004F05
:1010700023FA02F018BF404270474FF0000070475B
:1010800012F1610F01D1420205D110F0004008BFFA
:101090006FF0004070474FF0000070470000000004
:1010A00042000ED2B2F1FE4F0BD34FF09E03B3EBD2
:1010B000126209D44FEA002343F0004323FA02F0FE
:1010C00070474FF00000704712F1610F01D14202EA
:1010D00002D14FF0FF3070474FF00000704700BF63
:1010E000836970B51C69DA6805461440E2B2D243E0
:1010F000A6071A6103D543681B6903B198476007C7
:1011000004D56B689B690BB128469847210704D525
:101110006B681B6A0BB128469847E20604D56B68DA
:101120009B6A0BB128469847E30706D56B689B6816
:101130001BB12846BDE87040184770BD0000000094
:1011400080B400AFEFF30983203383F309880023D1
:1011500083F31188BD4680BC704700BF00000000CB
:1011600010B4202383F31188094C0A4B22681968B4
:10117000C31D23F00703891A8B429DBF9B18236070
:1011800010460020002383F3118810BC704700BF75
:10119000FC100020280E00200000000000000000CD
:1011A000202383F31188037F072B0ED8DFE803F099
:1011B000270D0D2308040D08026A9368013393601C
:1011C00090E80C001A600268536010B400224FF0DF
:1011D000FF3481680C4B046202771B689A688A426C
:1011E000FBD25A680021036042601060586081F3AE
:1011F000118810BC70470022036A1A60E5E70023DB
:1012000083F31188704700BF101400200000000015
:10121000FEE700BF0000000000000000000000002A
:10122000D0F894300E4A086810B4B2FBF0F20024F3
:101230009A608A88C888098942F4045240F04000C4
:1012400042F02C0241F0010192B280B289B21861E1
:101250005961DA601C601A6810BC5B68704700BF97
:101260000051250200000000000000000000000006
:10127000F0B50378012B52D0002283691A605A63BB
:101280009A63DA631A645A62416842690D68846835
:10129000B2FBF5F0CA68CD6A02F00F020138013CDA
:1012A000012A9862DC625D6037D0022A33D142F0B5
:1012B0000102486900F00F00012829D0022825D03A
:1012C000C86900F00F0001281DD0022819D0486A13
:1012D00000F00F00012803D0022803D142F400528D
:1012E00042F48052012600254FF400448520096B0A
:1012F0001A6221F0FF015E611D61D9605C641860B3
:10130000F0BD42F4007242F48072E0E742F0200245
:1013100042F01002D4E70022CBE70022C7E7214BBE
:10132000984208D0204B984225D046F6680283693F
:101330009A61DA61A8E770254FF000764FF00064FB
:101340004FF0000E194A1A4B91691A4F41F400618F
:101350009161D16841F40061D160C2F80CE083F87A
:101360001953C3F880611E6083F81B53C3F8804192
:101370001C604761D6E74FF00054002770260B4BE6
:101380000B4AD9690B4D41F00201D961196941F04D
:10139000020119611F6182F81D63C2F88041146067
:1013A0004561C2E7480C0020640C00200010024098
:1013B00000E100E000A24A0400000000000000007C
:1013C000202383F31188114B5B6813F4006302D16F
:1013D00083F31188704780B400AFEFF309834FF0B7
:1013E0008071A3F1200243F8041C82F30988084AA3
:1013F000116892698968926891428CBF054A064AD1
:1014000043F8082CBD4680BC704700BF00ED00E0EB
:1014100010140020510200085402000800000000CF
:1014200008B50348FFF75CFEBDE80840FFF7C8BFFA
:10143000640C00200000000000000000000000001C
:1014400008B50348FFF74CFEBDE80840FFF7B8BFFA
:10145000480C002000000000000000000000000018
:10146000FFF7EEBF000000000000000000000000D9
:101470002DE9F0414FF0804423699B0703D4BDE878
:10148000F041FFF79DBF00272025276185F31188D4
:101490001E4E606AB6F826E0F36980B2A0EB0E013A
:1014A0001A8989B2914206F11C081BD3196872444B
:1014B0004145F284DA68C1F80480F161DF6008BF59
:1014C000E76087F311881869904785F31188606A8F
:1014D000B6F826E0F36980B2A0EB0E011A8989B252
:1014E0008A42E3D943450AD07244121A92B2022AC0
:1014F0002CBF8218821C4FF0804392B25A630023A3
:1015000083F31188BDE8F041FFF75ABF10140020A3
:101510000B4B0C4A19681268090E01F00E011142BA
:101520000BD0094810B5046B0A065A600CB1406B29
:10153000A047BDE81040FFF743BFFFF741BF00BF22
:101540000000024080000240C80D002000000000A2
:101550000B4B0C4A19681268090D01F00E0111427B
:101560000BD0094810B5846A0A055A600CB1C06AEC
:10157000A047BDE81040FFF723BFFFF721BF00BF22
:10158000000002406C000240C80D00200000000076
:101590000B4B0C4A19681268090C01F00E0111423C
:1015A0000BD0094810B5046A0A045A600CB1406AAD
:1015B000A047BDE81040FFF703BFFFF701BF00BF22
:1015C0000000024058000240C80D0020000000004A
:1015D0000B4B0C4A19681268090B01F00E011142FD
:1015E0000BD0094810B584690A035A600CB1C06970
:1015F000A047BDE81040FFF7E3BEFFF7E1BE00BF24
:101600000000024044000240C80D0020000000001D
:101610000B4B0C4A19681268090A01F00E011142BD
:101620000BD0094810B504690A025A600CB1406930
:10163000A047BDE81040FFF7C3BEFFF7C1BE00BF23
:101640000000024030000240C80D002000000000F1
:101650000B4B0C4A19681268090901F00E0111427E
:101660000BD0094810B584680A015A600CB1C068F3
:10167000A047BDE81040FFF7A3BEFFF7A1BE00BF23
:10168000000002401C000240C80D002000000000C5
:1016900008B5094B094A1968126801F00E01114298
:1016A00005D0074A596013680BB150689847BDE8E8
:1016B0000840FFF785BE00BF00000240080002405E
:1016C000C80D002000000000000000000000000025
:1016D0000E4B0F4A5B688168126F5B1A9B1AC268D7
:1016E00030B4D0E9044541680132E418C2600268B0
:1016F00045F100058B4288BF43609342C0E9044531
:1017000030BC836038BF0360704700BF001000E04A
:101710001014002000000000000000000000000085
:1017200070B4012600250C4A106894690368A1680A
:1017300013605A6006779061257700E01B689A680D
:101740009142FBD35A6821462360626014605C605A
:1017500070BCFEF76DBD00BF10140020000000003B
:1017600030B40125064B99691A6808771468104649
:10177000636015771C6030BC9A61FEF759BD00BFED
:101780001014002000000000000000000000000015
:101790004FF6FF73F0B5994287B055D04C4C4FF0DF
:1017A000804E2546074655F81C0FDEF82420A66912
:1017B0000229484B38BF0221A8420596049396B2ED
:1017C0006ED0B4F826C092B2A6EB0C068B19A2EB31
:1017D0000C029BB29342028931DB93423BD393428A
:1017E00005D900689B1A02899BB29A42F9D34FF639
:1017F000FF71426801AE0292019016604660ADF83A
:101800000C300289D31A0381A1843846FFF7A8FF60
:10181000049B83B1E369B34223D00021029A019B68
:101820001360019BAB425A60049104D01A89BDF841
:101830000C100A441A81A369186A07B0F0BD006849
:101840009B1A9BB20289CAE7FFF78AFF204CA36963
:10185000186A07B0F0BD0CEB030189B2CEF8341062
:10186000BDE70023019EAE42E661756004932AD075
:101870004FF08040426AE18C3389BDF80C5092B23F
:10188000511A2B449BB289B28B423381D3D95B1A54
:101890009BB2022B2CBFD318931C9BB24363CAE7A5
:1018A000002002228B19E6849BB201AE01950295BD
:1018B000ADF80C10E6612662CEF83430CEF8100098
:1018C000CEF80C20A1E74FF08042D360B3E700BF11
:1018D00010140020A111000800000000000000000A
:1018E00061B10246074B10B49B6904201A6054682A
:1018F0005C602360536010BCFFF74ABF4FF0FF30BD
:10190000704700BF1014002000000000000000001D
:101910002DE9F04F83B004460D4616460193D0F8EA
:101920001C804FF0200989F311880027BA46A3686C
:1019300005F1010B03B36169A368481C013B6061B9
:10194000A3602B780B7023696169994224BFE36817
:101950006361B8F1000F01D02046C0478AF31188B7
:10196000013E07F1010711D089F311885D46A36894
:1019700005F1010B002BDED1019920460093FFF702
:10198000AFFF009B0028D2D083F31188384603B004
:10199000BDE8F08F00000000000000000000000023
:1019A0003030FFF7B5BF00BF0000000000000000AE
:1019B00030304FF6FF73FFF7ABBF00BF00000000F1
:1019C000F8B504460F461646202383F3118805E038
:1019D00031462046FFF784FF002817DBA568002D5D
:1019E000F6D06269A368511C013B6161A360177066
:1019F000236962699A4224BFE3686361E3690BB1BA
:101A000020469847002080F31188F8BD85F311889F
:101A1000F8BD00BF00000000000000000000000052
:101A20003030FFF7CDBF00BF000000000000000015
:101A300030304FF6FF72FFF7C3BF00BF0000000059
:101A40002DE9F04F044683B0894693461D46D0F8F1
:101A50001C80202787F311880026B2460197B8F131
:101A6000000F07D02046C04704E029462046FFF774
:101A700037FFD0B9A768002FF7D0A269A368511C1F
:101A8000013BA161A360137809F8013B2369A269B6
:101A90009A4224BFE368A3618AF311880136B345F3
:101AA00005D0019B83F31188D9E787F3118830466D
:101AB00003B0BDE8F08F00BF000000000000000090
:101AC0000C30FFF7BDBF00BF0000000000000000A9
:101AD0000C304FF6FF73FFF7B3BF00BF00000000EC
:101AE00070B520230E46044683F31188C3693BB1C9
:101AF000984705E031462046FFF7F2FE002813DB49
:101B0000A568002DF6D0A169A36825694A1C013B90
:101B1000AA42A36028BFE368A261087828BFA36136
:101B2000002383F3118870BD85F3118870BD00BF59
:101B30000C30FFF7D5BF00BF000000000000000020
:101B40000C304FF6FF71FFF7CBBF00BF0000000065
:101B500008B50146202383F311880820FFF718FEFB
:101B6000002383F3118808BD00000000000000007E
:101B7000002210B404468168064B02771B689A68FD
:101B80008A42FBD25A6820462360626014605C601F
:101B900010BC70471014002000000000000000007E
:101BA0003B4A38B5546B3B49A369656945EA034331
:101BB00023F07F438B424CD01ED807398B423CD058
:101BC00001318B4210D1D36A62685B6822F40072E3
:101BD00062601A6842F001021A60626842F4805240
:101BE00062605B68012B4ED915F00A0F18BFA3691C
:101BF000BDE83840FFF7E4BB27498B4212D00231E1
:101C00008B42F1D1D36A5B685B683BB32368118C6C
:101C100043F4A06341F0010111842360BDE8384022
:101C2000FFF7CEBB6368126B23F4007352686360E6
:101C3000136843F001031360D6E7138C1A0A0BD024
:101C400003F0010343F0F00302F0060213432361A3
:101C5000CAE7138CC3F347032361C5E761682020FB
:101C600021F400716160216841F40071216080F30A
:101C70001188D06918B10362D361FFF779FF00239F
:101C800083F31188B0E7236823F480632360ABE714
:101C90008009002008000300820007000000000007
:101CA000334AF8B5506B0E234469166B04F45F4158
:101CB000C943776841613D68D16A25F00F053D60F1
:101CC000357C376803FA05F54E687D6035680F6826
:101CD00025F00F0535600D7CA1B2AB407B6011F49F
:101CE00080731BBF01252B46936095608E0544BF12
:101CF00043F0020393604D050AD5456843F00403A1
:101D000025F400754560056845F40075056093602D
:101D10000F0544BF43F0080393604E0444BF43F0F3
:101D200020039360CD0417D543F010032004936083
:101D30001AD4202383F31188D06930B16FF00101E8
:101D400000230162D361FFF713FF002383F311889F
:101D5000BDE8F840FFF734BB210405D4002BE8D1DF
:101D6000BDE8F840FFF72CBB43F040039360E0E789
:101D700080090020000000000000000000000000BA
:101D8000002138B50368C26898428160826142616F
:101D90000CD004466FF001051A68184622605460A2
:101DA0001D62FFF7E5FE23689C42F5D138BD00BFF8
:101DB000F8B50468A04221D00D460746002602E08F
:101DC0002468A7421AD0E3682B43E36015B1226967
:101DD0001342F5D06068A368416B027F0B430A2A67
:101DE00043630CD00B2AEBD1026A32EA0303E7D13A
:101DF0000662FFF7BDFE2468A742E4D1F8BD026A7F
:101E00001342DDD00662FFF7B3FEF4E700000000E6
:101E100038B52022034682F311880E4A9469606A1D
:101E200004F124058542236206D003686362FFF74C
:101E30009FFE606AA842F8D1637F9B0704D12269A4
:101E400063691A61226953610F20BDE83840FFF7CA
:101E500087BC00BF1014002000000000000000003C
:101E6000FEE700BF000000000000000000000000CE
:101E7000F0B50026114F124D124C134B134907F1C8
:101E8000800E9C4211D91A46043951F8040F42F8C9
:101E9000040B9442F9D8DA43144424F003040434C4
:101EA00023449D4203D943F8046B9D42FBD810376D
:101EB000774502D297E83A00E3E7F0BD50340008D6
:101EC000C0160020C0160020C0160020343E0008B6
:101ED000FEE700BF0000000000000000000000005E
:101EE000704700BF0000000000000000000000007C
:101EF000704700BF0000000000000000000000006C
:101F0000024AD36843F08003D36070470038014031
:101F1000024AD36843F08003D36070470044004016
:101F2000024AD36843F08003D36070470048004002
:101F30004FF400552E4608B5064B074A9B69074CDF
:101F40009A6166616420FFF703FE25616420FFF754
:101F5000FFFDF6E7101400200035000800100140D6
:101F60002DE9F047D0F8946082B0D6F80CA0336821
:101F70000546DA059CB200F18280202383F31188A4
:101F800014F02F0F4AD04FF0000905F1040805F1B5
:101F90000C0707E0A00673681DD43468A4B214F0DF
:101FA0002F0F3BD02307F5D014F0080F0CBF0021F2
:101FB0008021E00748BF41F02001A20748BF41F05F
:101FC0004001630748BF41F480714046FFF7F0FECF
:101FD000A0067368E1D56A69002A3ED02A6A696A58
:101FE0008A4244D06969501C0131286269611370CA
:101FF0002A6AEB699A4201D3AB692B62EB689F4274
:10200000CBD01A681846EA605760C3F82090FFF7F3
:10201000AFFD3468A4B214F02F0FC3D1002383F3B3
:1020200011881AF0800F01D0220637D4630611D52B
:10203000202383F311886A6CAB6C9A4254D04FF61C
:10204000BF736FF040020AEA0303F36000233260BB
:1020500083F3118802B0BDE8F08704214046019364
:10206000FFF7A6FE2A6A696A019B8A42BAD16969AA
:102070000029B7D080214046FFF79AFE8DE7202344
:1020800083F311884FF400710430FFF791FE6FF471
:1020900080720023326083F311886EE7202383F37C
:1020A0001188AB6C6A6C05F130079A4224D0AA6B98
:1020B000286C591C0132AA63A964814293F80080FC
:1020C00001D3EB6BAB642B6B9F4207D000211A68E6
:1020D00018462A6357601962FFF74AFDC6F8048064
:1020E000002383F31188A1E7AB6B002BA7D0281D39
:1020F0001021FFF75DFEA2E7AA6B002AD7D00821C6
:10210000281DFFF755FE4FF63F730AEA030343F01D
:102110004003F360E4E700BF00000000000000009F
:1021200008B50348FFF71CFFBDE80840FFF748B9B2
:1021300078130020000000000000000000000000F4
:1021400008B50348FFF70CFFBDE80840FFF738B9B2
:10215000E01200200000000000000000000000006D
:1021600008B50348FFF7FCFEBDE80840FFF728B9B3
:1021700048120020000000000000000000000000E5
:1021800000214FF0FF30134B2DE980481E69186184
:102190001961DE68D860D9600A460C46D9690E4DCF
:1021A00041F08051D961D9690C4841F00061D96191
:1021B0002B680B4E43F480730A4989B02B6034605E
:1021C00041F832400132072A00F114000CD050F8D7
:1021D000146CF4E70010024000700040283500083D
:1021E00008000240C80D00204FF0FF3A4FF088323F
:1021F0004FF001094FF0040BB84BDFF89083C3F8A0
:1022000004A0D8F81850B648B64EDFF884C3DFF8FB
:1022100084E345F07D05C8F81850B34BC660B34F52
:10222000C0F804C0C0F800E0B148C7F80CA05C607A
:10223000786000F1BF5000F5FF1000F688505C6137
:10224000AC4E3860AC49AD48DFF84CC3DFF84CE326
:10225000C6F80CA0DC61C6F804C03260C0F80CA05F
:10226000C3F834E04260D96214390191A448A3490B
:10227000A44D0860019903F10C0EC5F80CA0A24F03
:10228000A24EDFF81CC319636A60C3F80CE02A6031
:10229000C3F810E083F800909D4B9E489E4987F854
:1022A00000907C60FC60C7F818C087F810B086F812
:1022B00010B0B36186F800907460F46001F048F8E3
:1022C000964B944A96489749C2F8943001F040F8EA
:1022D000954B934A95489649C2F8943001F038F8E6
:1022E000D8F81C20934842EA0902C8F81C2042682A
:1022F0004FF0804342F40062426041F61F454FF6C2
:10230000FF729D62DA629C618B4A5C63DC605C6098
:10231000C3F81490C3F80090844B4FF08051C3F879
:1023200094206FF07F034FF6FF0E4FF0100C4FF02C
:10233000200B824A824DA0F5822085F81C33C5F817
:10234000801129609460D1687E4B01EA0E010B4335
:102350007D49D360CB6843F08073CB6001687B4BD1
:1023600041EA090101605B6082F81FC082F822B077
:1023700003F11C029C60DA611A621B6000221B617F
:102380005B61A3F824A0DC841C670193002302A8EE
:10239000CDE90623CDF808A003940494059400F039
:1023A000CFFF02A8FFF794F94FF0400E6849019B58
:1023B000684A21F0070A6848049920F0070C196759
:1023C000586902F110011161516103F12C01186487
:1023D0009461C3F834E0C3F868E083F849405C6670
:1023E0001C6683F84A905C64DB6301615B48596159
:1023F000996103F15001DFF8ACE119655849946027
:10240000D460106003F1540283F848905A659A65CD
:10241000CEF800C0C1F800A084F3118862B6514C18
:1024200099694A468C6103F17800D8214E4B00F03F
:102430002FFF4E4B83618BF31188394B1B7A4B4531
:1024400000F0BC814FF0020B49493548FEF7E8FE29
:10245000334B4FF0000883F808B088F31188DFF899
:1024600048A1444B45224FF4A471CAF80080CAF831
:102470000480AAF80880404800F00AFF4FF02009C5
:1024800089F311883D4C204863687C60BB60FEF78F
:10249000EFFEC7F80C8087F800B088F3118889F345
:1024A0001188636819487460B360FEF7E1FEC6F8EE
:1024B0000C8086F800B088F31188314D41462846DB
:1024C000282200F075FF4FF0030E2E4C85F814E023
:1024D00085F81CE02C4B2F6068E000BF0000024034
:1024E00000080140DFBFFFFF80090020000C014011
:1024F000334B33330010014088350008001401408D
:102500004488888800180140480C0020640C002092
:102510000004004048120020011F0008003801405C
:10252000E0120020111F0008004400407813002032
:10253000211F0008002004E00048004000ED00E0FA
:1025400000E100E00003FA05F0ED00E010140020C7
:1025500000500020080E0020C7160020611100085E
:10256000280E0020A035000811120008C035000810
:10257000D0340008A12D00083808002000080020F1
:10258000C4150020F8150020A12A00080010024000
:10259000BBB48338334B33BB888838880054004041
:1025A000002C0140FC100020EC150020AE6085F8E6
:1025B0000CB02E61AF612E624A224FF4A47196488E
:1025C00000F066FE41462046502200F0F1FE012751
:1025D0004FF0080C04260D234FF0050E0C220E219F
:1025E0000F206773267705EB0C0705F110062761AE
:1025F00026628A4F8A4E256084F82D3005F1180333
:102600004D4484F82C20236384F83C1084F83D006A
:10261000844B256447224FF4A47184F84DC0676051
:10262000A7606761A761676284F81DE084F84CE0E9
:10263000A6626663A6636664A6647B4800F028FE13
:1026400089F31188794B1B7A012B00F08780784938
:102650007648FEF7E5FD0223744A0026137286F3DE
:102660001188202531462622724800F0A1FE31460D
:102670002A46714800F09CFE704B44224FF43271A0
:102680006F4800F005FE85F311886E4B1B7A012B15
:1026900038D06D496B48FEF7C3FD0223694A00211B
:1026A000137281F31188694A69486A4D614E11803D
:1026B00001602E60684B43224FF4A4716748684E56
:1026C000684D00F0E5FD684B40224FF4A471674867
:1026D0003460C5F800A0052700F0DAFD644C2868D6
:1026E0003168821E083032F8023F103103EB830359
:1026F0005B00904221F8023CF5D1C8202770FFF71B
:1027000027FAECE7C0265B4A5B4891695B4B41F4D2
:10271000804191614B4983F825638142C3F884511C
:102720005D6009D14020D16941F40031D16183F865
:102730002663C3F884015860424B3C4A9342A8D1B7
:102740008021C0254B484D4BC26942F48022C261B2
:1027500083F82753C3F8841159609AE7334B394AF9
:1027600093420CD1C0204349444B8A6942F48042D1
:102770008A6183F82503C3F88491C3F804902B4B36
:102780003D4A93420CD14021C0253A483B4BC26997
:1027900042F40032C26183F82653C3F884115960B1
:1027A0008021C0253348354BC26942F48022C26182
:1027B00083F82753C3F88411596048E72E4B214A08
:1027C00093420CD1C022D8F8183043F48043C8F8A3
:1027D000183085F82523C5F884B1C5F804B0402029
:1027E000C024244A254BD16941F40031D16183F8DA
:1027F00026432149C3F8840158600C4881427FF484
:1028000021AE8020D16941F48021D16183F8274332
:10281000C3F88401586015E6B8090020000801409B
:10282000000C0140D1290008000B00207813002083
:10283000F034000878150020A4150020912F00081E
:10284000300E002048120020E034000862150020FD
:1028500068150020A0150020412B0008800C0020E6
:10286000F8100020000E0020311F00080011002089
:102870002C0E002000100240E012002000E100E0D9
:102880001B4B1A46196841F001011960136898073B
:10289000FCD500201368164903F0F903136050605B
:1028A0004B6813F00C0FFBD10B68114A43F48033D3
:1028B0000B6013689903FCD553680D4943F4E81382
:1028C0005360136843F0807313600B689B01FCD561
:1028D0001222084B084848601A604B68044A43F0CB
:1028E00002034B60536803F00C03082BFAD17047C6
:1028F000001002400020024000641D0000000000A3
:10290000F8B51F49FEF7DCF94FF07A51FEF7CEF823
:102910000446FEF79DFB002105462046FEF76EFBB0
:1029200000B1013D2846FEF775F901462046FEF745
:10293000BBF84FF08841FEF7C3F90546FEF7B0FB40
:10294000C0F308042046FEF761F901462846FEF769
:10295000ABF80C4E054601464FF07E50FEF7A4F84A
:1029600056F82410FEF7ACF90134074656F8241047
:102970002846FEF7A5F901463846FEF797F8F8BD58
:1029800083F9223ED035000800000000000000005E
:102990000D4A10B52023946983F31188636B13F0FB
:1029A000010007D06FF0010213406363002383F33B
:1029B000118810BD01230A202362FEF7D1FE636B4C
:1029C00003F00100C243EFE71014002000000000F4
:1029D0002DE9F0472C4FBB695B7F5A0751D4DFF8D4
:1029E000B4A02A4C2A4E00234FF0010E1A4642F2A0
:1029F000107C17E06145A8BF614692F80C905568BD
:102A00000EFA09F02861507B0133D2F8089054F88F
:102A10000850DBB20EFA00F0052BC9F814001A4674
:102A2000E98025D04FEA021804EB0802B2F90E1033
:102A30000029DFDCB142C1F10001B8BF42F21071E0
:102A400092F80C9055680EFA09F06861507B03F11A
:102A50000103D2F80890DBB20EFA00F254F8080035
:102A6000A8BF89B2052BC9F81020C1801A46D9D158
:102A70000A208AF80030FFF76BF8BB695B7F5B07C1
:102A8000B1D5BDE8F08700BF10140020F815002074
:102A9000F1D8FFFF761500200000000000000000C4
:102AA0002DE9F047DFF88C80D8F818305B7F13F001
:102AB000040637D11C4C1D4D1D4F00234FF0200E36
:102AC0000120267055F833C005EBC303D988DCF824
:102AD000082093F8049002FB01F2A7FB0232520B8C
:102AE0008EF31188DCF80C10DCF8183000FA09FAC3
:102AF00009F10C0941EA0A0103EB8909CCF80C1031
:102B0000C9F8042086F3118823780133DBB2042B43
:102B10002370D7D90A20FFF71BF8D8F818305B7F4D
:102B20005B07CAD5BDE8F0876C150020C4150020EE
:102B30005917B7D110140020000000000000000059
:102B40002DE9F04F202487B022460021884800F06C
:102B50002FFC0023874A1288138084F311880125F3
:102B600040F2E631844FDFF82C927C6806AAD9F84F
:102B7000180042F8144D04930290039505917A6071
:102B800083F31188D9F818305B7F5A0735D47B4C12
:102B90007B4E774D0C37FFF7FBFE202383F3118824
:102BA0000023049A0493226083F31188226833700F
:102BB0005342134022EA0302402B22606DD077D8A3
:102BC000042B7ED0202B69D0022B66D012B1337833
:102BD000002BEDD04FF0200888F311883846FFF71E
:102BE000CFF8002181F311884246284600F0E0FB2F
:102BF000D9F818305B7F5B07CDD507B0BDE8F08F03
:102C0000BBF1000F40F0AB80BEF1000F01D05D4B77
:102C10001970BCF1000F02D0564BA3F800805A4B3C
:102C2000DFF874A1D3F80080D8F81600FDF77CFC1B
:102C30000022564BFDF7F6FD02460B46FDF716FB4C
:102C400049A3D3E90023FDF7C3FCFDF7D9FEFFF745
:102C500057FE8346474B1888FDF7D8FF5946FEF7C5
:102C60002FF88346D8F81200FDF75EFC0022474B90
:102C7000FDF7D8FD02460B46FDF7F8FA3AA3D3E973
:102C80000023FDF7A5FCFDF7BBFEFFF739FE01466B
:102C90005846FEF715F8CAF80000202383F3118880
:102CA0003846FFF76DF8002383F3118822688DE71B
:102CB000B3F5807FF1D0B3F5007FEED0802B85D1C6
:102CC000EBE70A20FEF744FFD4F80080B8F1000FCC
:102CD000E3D14346202229463846FEF7B1FEC446DA
:102CE0002B4BC0B21870234A264BDFF8B0A083F8F4
:102CF0000080C6464146C346BAF90030B2F80080AB
:102D0000624602E04FF0010E114690427FF678AF26
:102D1000A95C01322629D2B2F4D1A95C0023402952
:102D20001BD0904202D818E090420ED90132D2B2A4
:102D300003EB8303A1F1300EA95C0EEB430E1FFAE7
:102D40008EFE40290FFA8EF3EED1B3F5FA6FB8BFBD
:102D5000F0464FF0010CE346D4E79846F9E7AAF8AD
:102D6000003051E7AFF3008000000060FB21094014
:102D70007C1600206215002048120020501600200A
:102D80006515002074150020A015002000807640F5
:102D9000611500201014002068150020BE160020C8
:102DA0002DE9F04F202487B0002122466C4800F026
:102DB000FFFA84F31188012040F2E6310022694FC6
:102DC000DFF8BC917D6806ABD9F8184043F8145D74
:102DD0000294039005917B60049282F31188D9F8E4
:102DE00018305B7F5A0735D45F4C604EDFF870B106
:102DF0000C37FFF7CDFD202383F311880023049ABD
:102E00000493226083F31188226833705342134085
:102E100022EA0302402B226026D030D8042B37D080
:102E2000202B22D0022B1FD012B13378002BEDD0F3
:102E3000202585F311883846FEF7A2FF002181F393
:102E400011882A46584600F0B3FAD9F818305B7F4B
:102E50005B07CED507B0BDE8F08F002D7DD1002BEC
:102E600077D10023424A1370202383F31188384618
:102E7000FEF786FF002383F311882268D4E7B3F5B9
:102E8000807FF1D0B3F5007FEED0802BCCD1EBE783
:102E90009620FEF75DFE2568002DE5D12B46202209
:102EA00059463846FEF7CCFDDFF8D880314A324922
:102EB000C0B210702B462A46B8F900E091F800C065
:102EC00001E00132D2B29042C7D91BF8021040296A
:102ED000F7D10BEB020189783A29F2D1531C033266
:102EE000DBB2D2B21BF803501BF802A0303DBAF19E
:102EF000260FEDB228D0904226D94FF0000CE646BE
:102F000001E0904213D90132D2B2BAF12D0F0EEB8B
:102F10008E03AAF130011BF802A001EB430314BF9A
:102F20000FFA83FE4FF0010CBAF1260FE9D1BCF184
:102F3000000F0BD0CEF1000E0FFA8EFE01230F49C9
:102F400021F815E01D46BEE74FF0000E4FF0000CD3
:102F5000F4E7094B83F800C083E7A8F800E07EE7B8
:102F60005C160020E01200204C16002064150020A2
:102F70006D1500206015002048160020EC1500207B
:102F8000101400205816002000000000000000006F
:102F90002DE9F04F202487B000212246A74800F0F9
:102FA00007FA84F31188012440F2E6300022A44994
:102FB000DFF8C4824E6806ABD8F8185043F8146D99
:102FC0000295039405904B60049282F31188DFF818
:102FD0006C92D8F81840637F13F004034DD120227F
:102FE00082F31188626B12F0010540F0B380012377
:102FF0004FF47A7123620A20FEF7CAFB0028C0F260
:10300000AF80636B23F00102626385F31188DB07F5
:1030100040F1A880202383F311880023049A894C6F
:103020000493226083F31188874D2268874E2B70AA
:103030005342134022EA0302402B22605ED068D83C
:10304000042B6FD0202B5AD0022B57D012B12B78E3
:10305000002BEDD0202484F311887C48FEF790FEED
:10306000002181F311882246484600F0A1F9D8F8E2
:103070001840637F13F00403B1D007B0BDE8F08FB0
:1030800099F801205A2A61D199F80300DFF8ECC1C0
:10309000DFF8CCE1011D11F0FF018CF80070CEF8D3
:1030A000007000F08C806A4B09EB010B01E013F813
:1030B000012B17449B45FFB2F9D18CF80070CEF874
:1030C000001048440379BB4240D1202383F3118888
:1030D00099F80230352B5FD066D9452B71D0652B1E
:1030E00004D15C4A5C4B03CB106051609AF800300D
:1030F00000220A338AF8003082F31188202383F3F8
:1031000011883046FEF73CFE002383F311882268C5
:103110009CE7B3F5807FF1D0B3F5007FEED0802B34
:1031200094D1EBE71420FEF713FD2768002FE5D1BB
:103130003B46202249463046FEF782FC99F8003093
:10314000DFF83CA15A2B8AF8007099D001238AF845
:103150000030D3E722F00102626383F3118859E75C
:1031600085F311883D4C20222046002100F020F9F3
:10317000A5224520EA250227DFF800E1384E22701B
:1031800060702146142303223648A5708EF8005043
:103190003760FEF7BDFB1CE7334B2F4A92E8030074
:1031A00043F8040B1980A1E7152B3FD0252B9DD1A7
:1031B000294A2E4B1068928818609A8096E70F462D
:1031C0007FE799F8043099F80500294F40EA032079
:1031D00000B2FDF797F90022264BFDF723FBFDF720
:1031E0000FFC99F8062099F80730C7F8120043EA57
:1031F000022318B2FDF786F900221E4BFDF712FBE1
:10320000FDF7FEFB99F8082099F80930C7F8160079
:1032100043EA022318B2FDF775F90022154BFDF7BA
:1032200001FBFDF7EDFBC7F81A005FE7104B0A4AF8
:1032300092E803001860998058E700BFA4150020A9
:1032400078130020541600206615002084130020F7
:10325000A515002096150020A81500209C1600201A
:1032600070150020A8130020841500207E15002072
:10327000781500200000594010140020BC160020D2
:103280007515002000000000000000000000000094
:10329000F8B51D460446202383F31188002001273A
:1032A0004FF0020E24396618E660204B6550204D21
:1032B0003362706025616B69A7776361A260607794
:1032C00084F81CE0E263A0636063A0611C61AE69E6
:1032D0002062B16804F1280304F124078A426C617A
:1032E0006762A362E3620ED820772D68A9688A42DC
:1032F000FBD96A682560626014606C60002383F308
:1033000011882046F8BD2B4630771B689A68914299
:10331000FBD901275A683146336072602046166037
:103320005E602777AC61FCF783FFE7E741020008A6
:103330001014002000000000000000000000000049
:10334000014B5B6883607047001000E000000000E4
:103350000346F0B500254FF0010E2027114A00F179
:103360000C0443F8042B00F1940600F1540243606E
:10337000C16400F1740300F130014561C062006571
:1033800080F808E0856287630664C4600461826136
:1033900042620262C361C363836443640163416345
:1033A000F0BD00BFE03D000800000000000000008C
:1033B00070B4860746D0541E002A41D0CAB20346D4
:1033C00002E014F1FF343BD303F8012B9D07F8D141
:1033D000032C2ED9CDB245EA05250F2C45EA05452B
:1033E00019D9264603F11002103E0F2E42F8105C48
:1033F00042F80C5C42F8085C42F8045C02F11002EE
:10340000F2D8A4F1100222F00F0204F00F041032DF
:10341000032C13440DD91E462246043A032A46F8CB
:10342000045BFAD8221F22F003020432134404F092
:1034300003042CB1C9B21C4403F8011B9C42FBD10C
:1034400070BC704714460346C2E700BF000000008E
:10345000343E0008C0160020C0160020C016002010
:10346000343E0008000000000000000000000000E2
:10347000343E0008000000000000000000000000D2
:10348000343E0008000000000000000000000000C2
:10349000343E0008000000000000000000000000B2
:1034A000343E0008000000000000000000000000A2
:1034B000343E000800000000000000000000000092
:1034C000343E000800000000000000000000000082
:1034D00080250000002000400000000000000000E7
:1034E00000C20100002000400000000000000000B9
:1034F00000C20100002000400000000000000000A9
:10350000626C696E6B6572000000000000000000D4
:10351000000002400800024001000000000000001E
:1035200000000B00000002401C00024002000000EE
:103530000000000004010C000000024030000240C6
:10354000040000000000000008020D00000002401E
:103550004400024008000000000000000C030E00C0
:10356000000002405800024010000000000000006F
:1035700010040F00000002406C0002402000000018
:10358000000000001405100000000240800002400E
:1035900040000000000000001806110000000000BC
:1035A0006D61696E00168018040244080C1014182E
:1035B000001C1D1E000000000000000000000000B4
:1035C00069646C650000000000000000000000005D
:1035D00000000000920E493CB10AC93C2BC3163DC5
:1035E0002EFB483D752B7B3D04A9963D80B6AF3D33
:1035F00036BDC83D2FBCE13D73B2FA3D87CF093ED1
:103600008340163EB5AB223EA2102F3ECF6E3B3E0E
:10361000C2C5473E0115543E135C603E7F9A6C3E26
:10362000CCCF783EC07D823E938E883E229A8E3EDD
:1036300032A0943E86A09A3EE59AA03E128FA63E06
:10364000D47CAC3EEF63B23E2A44B83E491DBE3E38
:1036500015EFC33E53B9C93ECA7BCF3E4136D53E76
:1036600080E8DA3E4F92E03E7533E63EBBCBEB3E60
:10367000EA5AF13ECBE0F63E275DFC3EE4E7003F30
:103680003D9C033F824B063F9BF5083F6B9A0B3FE7
:10369000DA390E3FCDD3103F2A68133FD9F6153FD4
:1036A000C07F183FC6021B3FD17F1D3FCBF61F3F97
:1036B0009967223F25D2243F5636273F1594293F4C
:1036C0004AEB2B3FDE3B2E3FBB85303FC9C8323F24
:1036D000F304353F233A373F4268393F3B8F3B3F46
:1036E000F9AE3D3F67C73F3F70D8413F01E2433FDE
:1036F00003E4453F65DE473F12D1493FF8BB4B3FEE
:10370000029F4D3F207A4F3F3D4D513F4918533F57
:1037100031DB543FE595563F5348583F6AF2593FD5
:103720001A945B3F532D5D3F05BE5E3F2146603FCF
:1037300097C5613F5A3C633F59AA643F880F663F73
:10374000D86B673F3CBF683FA7096A3F0C4B6B3F94
:103750005E836C3F93B26D3F9ED86E3F73F56F3FB3
:103760000809713F5213723F4714733FDD0B743FDA
:103770000BFA743FC6DE753F07BA763FC58B773FBD
:10378000F853783F9812793F9DC7793F02737A3F8B
:10379000BE147B3FCDAC7B3F283B7C3FC9BF7C3F09
:1037A000AC3A7D3FCCAB7D3F23137E3FB0707E3F74
:1037B0006DC47E3F580E7F3F6D4E7F3FAB847F3F91
:1037C0000FB17F3F97D37F3F43EC7F3F11FB7F3F9C
:1037D0000000803F11FB7F3F43EC7F3F97D37F3F4B
:1037E0000FB17F3FAB847F3F6D4E7F3F580E7F3FD1
:1037F0006DC47E3FB0707E3F23137E3FCCAB7D3FD8
:10380000AC3A7D3FC9BF7C3F283B7C3FCDAC7B3F82
:10381000BE147B3F02737A3F9DC7793F9812793F70
:10382000F853783FC58B773F07BA763FC6DE753FC2
:103830000BFA743FDD0B743F4714733F5213723F12
:103840000809713F73F56F3F9ED86E3F93B26D3F8D
:103850005E836C3F0C4B6B3FA7096A3F3CBF683FE0
:10386000D86B673F880F663F59AA643F5A3C633F55
:1038700097C5613F2146603F05BE5E3F532D5D3FCA
:103880001A945B3F6AF2593F5348583FE595563FBB
:1038900031DB543F4918533F3D4D513F207A4F3F54
:1038A000029F4D3FF8BB4B3F12D1493F65DE473F7A
:1038B00003E4453F01E2433F70D8413F67C73F3FC4
:1038C000F9AE3D3F3B8F3B3F4268393F233A373F9C
:1038D000F304353FC9C8323FBB85303FDE3B2E3F46
:1038E0004AEB2B3F1594293F5636273F25D2243FDC
:1038F0009967223FCBF61F3FD17F1D3FC6021B3F7A
:10390000C07F183FD9F6153F2A68133FCDD3103F2B
:10391000DA390E3F6B9A0B3F9BF5083F824B063F0F
:103920003D9C033FE4E7003F275DFC3ECBE0F63ED5
:10393000EA5AF13EBBCBEB3E7533E63E4F92E03E9A
:1039400080E8DA3E4136D53ECA7BCF3E53B9C93E08
:1039500015EFC33E491DBE3E2A44B83EEF63B23E5A
:10396000D47CAC3E128FA63EE59AA03E86A09A3E3D
:1039700032A0943E229A8E3E938E883EC07D823E37
:10398000CCCF783E7F9A6C3E135C603E0115543E6E
:10399000C2C5473ECF6E3B3EA2102F3EB5AB223E86
:1039A0008340163E87CF093E73B2FA3D2FBCE13DFE
:1039B00036BDC83D80B6AF3D04A9963D752B7B3D15
:1039C0002EFB483D2BC3163DB10AC93C920E493C23
:1039D00000000000920E49BCB10AC9BC2BC316BD41
:1039E0002EFB48BD752B7BBD04A996BD80B6AFBD2F
:1039F00036BDC8BD2FBCE1BD73B2FABD87CF09BECD
:103A0000834016BEB5AB22BEA2102FBECF6E3BBE0A
:103A1000C2C547BE011554BE135C60BE7F9A6CBE22
:103A2000CCCF78BEC07D82BE938E88BE229A8EBED9
:103A300032A094BE86A09ABEE59AA0BE128FA6BE02
:103A4000D47CACBEEF63B2BE2A44B8BE491DBEBE34
:103A500015EFC3BE53B9C9BECA7BCFBE4136D5BE72
:103A600080E8DABE4F92E0BE7533E6BEBBCBEBBE5C
:103A7000EA5AF1BECBE0F6BE275DFCBEE4E700BF2C
:103A80003D9C03BF824B06BF9BF508BF6B9A0BBFE3
:103A9000DA390EBFCDD310BF2A6813BFD9F615BFD0
:103AA000C07F18BFC6021BBFD17F1DBFCBF61FBF93
:103AB000996722BF25D224BF563627BF159429BF48
:103AC0004AEB2BBFDE3B2EBFBB8530BFC9C832BF20
:103AD000F30435BF233A37BF426839BF3B8F3BBF42
:103AE000F9AE3DBF67C73FBF70D841BF01E243BFDA
:103AF00003E445BF65DE47BF12D149BFF8BB4BBFEA
:103B0000029F4DBF207A4FBF3D4D51BF491853BF53
:103B100031DB54BFE59556BF534858BF6AF259BFD1
:103B20001A945BBF532D5DBF05BE5EBF214660BFCB
:103B300097C561BF5A3C63BF59AA64BF880F66BF6F
:103B4000D86B67BF3CBF68BFA7096ABF0C4B6BBF90
:103B50005E836CBF93B26DBF9ED86EBF73F56FBFAF
:103B6000080971BF521372BF471473BFDD0B74BFD6
:103B70000BFA74BFC6DE75BF07BA76BFC58B77BFB9
:103B8000F85378BF981279BF9DC779BF02737ABF87
:103B9000BE147BBFCDAC7BBF283B7CBFC9BF7CBF05
:103BA000AC3A7DBFCCAB7DBF23137EBFB0707EBF70
:103BB0006DC47EBF580E7FBF6D4E7FBFAB847FBF8D
:103BC0000FB17FBF97D37FBF43EC7FBF11FB7FBF98
:103BD000000080BF11FB7FBF43EC7FBF97D37FBF47
:103BE0000FB17FBFAB847FBF6D4E7FBF580E7FBFCD
:103BF0006DC47EBFB0707EBF23137EBFCCAB7DBFD4
:103C0000AC3A7DBFC9BF7CBF283B7CBFCDAC7BBF7E
:103C1000BE147BBF02737ABF9DC779BF981279BF6C
:103C2000F85378BFC58B77BF07BA76BFC6DE75BFBE
:103C30000BFA74BFDD0B74BF471473BF521372BF0E
:103C4000080971BF73F56FBF9ED86EBF93B26DBF89
:103C50005E836CBF0C4B6BBFA7096ABF3CBF68BFDC
:103C6000D86B67BF880F66BF59AA64BF5A3C63BF51
:103C700097C561BF214660BF05BE5EBF532D5DBFC6
:103C80001A945BBF6AF259BF534858BFE59556BFB7
:103C900031DB54BF491853BF3D4D51BF207A4FBF50
:103CA000029F4DBFF8BB4BBF12D149BF65DE47BF76
:103CB00003E445BF01E243BF70D841BF67C73FBFC0
:103CC000F9AE3DBF3B8F3BBF426839BF233A37BF98
:103CD000F30435BFC9C832BFBB8530BFDE3B2EBF42
:103CE0004AEB2BBF159429BF563627BF25D224BFD8
:103CF000996722BFCBF61FBFD17F1DBFC6021BBF76
:103D0000C07F18BFD9F615BF2A6813BFCDD310BF27
:103D1000DA390EBF6B9A0BBF9BF508BF824B06BF0B
:103D20003D9C03BFE4E700BF275DFCBECBE0F6BED1
:103D3000EA5AF1BEBBCBEBBE7533E6BE4F92E0BE96
:103D400080E8DABE4136D5BECA7BCFBE53B9C9BE04
:103D500015EFC3BE491DBEBE2A44B8BEEF63B2BE56
:103D6000D47CACBE128FA6BEE59AA0BE86A09ABE39
:103D700032A094BE229A8EBE938E88BEC07D82BE33
:103D8000CCCF78BE7F9A6CBE135C60BE011554BE6A
:103D9000C2C547BECF6E3BBEA2102FBEB5AB22BE82
:103DA000834016BE87CF09BE73B2FABD2FBCE1BDFA
:103DB00036BDC8BD80B6AFBD04A996BD752B7BBD11
:103DC0002EFB48BD2BC316BDB10AC9BC920E49BC1F
:103DD0000000008000000000000000000000000063
:103DE000B1190008D11A0008311A0008411B000857
:103DF000211A0008311B0008A1190008C11A000887
:103E000040420F00102700000000000001000000E9
:103E100000000000010000000000000001000000A0
:103E20000000000001000000000000000000000091
:043E3000000000008E
:04000005080001618D
:00000001FF
